{
  "contractName": "DecentralBank",
  "abi": [
    {
      "inputs": [
        {
          "internalType": "contract Tether",
          "name": "_tether",
          "type": "address"
        },
        {
          "internalType": "contract RWD",
          "name": "_rwd",
          "type": "address"
        }
      ],
      "stateMutability": "nonpayable",
      "type": "constructor"
    },
    {
      "inputs": [
        {
          "internalType": "address",
          "name": "",
          "type": "address"
        }
      ],
      "name": "hasStaked",
      "outputs": [
        {
          "internalType": "bool",
          "name": "",
          "type": "bool"
        }
      ],
      "stateMutability": "view",
      "type": "function"
    },
    {
      "inputs": [
        {
          "internalType": "address",
          "name": "",
          "type": "address"
        }
      ],
      "name": "isStaked",
      "outputs": [
        {
          "internalType": "bool",
          "name": "",
          "type": "bool"
        }
      ],
      "stateMutability": "view",
      "type": "function"
    },
    {
      "inputs": [],
      "name": "name",
      "outputs": [
        {
          "internalType": "string",
          "name": "",
          "type": "string"
        }
      ],
      "stateMutability": "view",
      "type": "function"
    },
    {
      "inputs": [],
      "name": "owner",
      "outputs": [
        {
          "internalType": "address",
          "name": "",
          "type": "address"
        }
      ],
      "stateMutability": "view",
      "type": "function"
    },
    {
      "inputs": [],
      "name": "rwd",
      "outputs": [
        {
          "internalType": "contract RWD",
          "name": "",
          "type": "address"
        }
      ],
      "stateMutability": "view",
      "type": "function"
    },
    {
      "inputs": [
        {
          "internalType": "uint256",
          "name": "",
          "type": "uint256"
        }
      ],
      "name": "stakers",
      "outputs": [
        {
          "internalType": "address",
          "name": "",
          "type": "address"
        }
      ],
      "stateMutability": "view",
      "type": "function"
    },
    {
      "inputs": [
        {
          "internalType": "address",
          "name": "",
          "type": "address"
        }
      ],
      "name": "stakingBalance",
      "outputs": [
        {
          "internalType": "uint256",
          "name": "",
          "type": "uint256"
        }
      ],
      "stateMutability": "view",
      "type": "function"
    },
    {
      "inputs": [],
      "name": "tether",
      "outputs": [
        {
          "internalType": "contract Tether",
          "name": "",
          "type": "address"
        }
      ],
      "stateMutability": "view",
      "type": "function"
    },
    {
      "inputs": [
        {
          "internalType": "uint256",
          "name": "_amount",
          "type": "uint256"
        }
      ],
      "name": "depositTokens",
      "outputs": [],
      "stateMutability": "nonpayable",
      "type": "function"
    }
  ],
  "bytecode": "0x6080604052336000806101000a81548173ffffffffffffffffffffffffffffffffffffffff021916908373ffffffffffffffffffffffffffffffffffffffff1602179055506040518060400160405280600e81526020017f446563656e7472616c2042616e6b00000000000000000000000000000000000081525060019080519060200190620000919291906200014f565b503480156200009f57600080fd5b5060405162000ca438038062000ca48339818101604052810190620000c59190620002c2565b81600260006101000a81548173ffffffffffffffffffffffffffffffffffffffff021916908373ffffffffffffffffffffffffffffffffffffffff16021790555080600360006101000a81548173ffffffffffffffffffffffffffffffffffffffff021916908373ffffffffffffffffffffffffffffffffffffffff16021790555050506200036e565b8280546200015d9062000338565b90600052602060002090601f016020900481019282620001815760008555620001cd565b82601f106200019c57805160ff1916838001178555620001cd565b82800160010185558215620001cd579182015b82811115620001cc578251825591602001919060010190620001af565b5b509050620001dc9190620001e0565b5090565b5b80821115620001fb576000816000905550600101620001e1565b5090565b600080fd5b600073ffffffffffffffffffffffffffffffffffffffff82169050919050565b6000620002318262000204565b9050919050565b6000620002458262000224565b9050919050565b620002578162000238565b81146200026357600080fd5b50565b60008151905062000277816200024c565b92915050565b60006200028a8262000224565b9050919050565b6200029c816200027d565b8114620002a857600080fd5b50565b600081519050620002bc8162000291565b92915050565b60008060408385031215620002dc57620002db620001ff565b5b6000620002ec8582860162000266565b9250506020620002ff85828601620002ab565b9150509250929050565b7f4e487b7100000000000000000000000000000000000000000000000000000000600052602260045260246000fd5b600060028204905060018216806200035157607f821691505b6020821081141562000368576200036762000309565b5b50919050565b610926806200037e6000396000f3fe608060405234801561001057600080fd5b50600436106100935760003560e01c80636177fd18116100665780636177fd18146101225780638da5cb5b14610152578063c93c8f3414610170578063dd49756e146101a0578063fd5e6dd1146101bc57610093565b806306fdde03146100985780631a8972d3146100b657806345bc78ab146100d45780635efc071a14610104575b600080fd5b6100a06101ec565b6040516100ad9190610525565b60405180910390f35b6100be61027a565b6040516100cb91906105c6565b60405180910390f35b6100ee60048036038101906100e99190610624565b6102a0565b6040516100fb919061066a565b60405180910390f35b61010c6102b8565b60405161011991906106a6565b60405180910390f35b61013c60048036038101906101379190610624565b6102de565b60405161014991906106dc565b60405180910390f35b61015a6102fe565b6040516101679190610706565b60405180910390f35b61018a60048036038101906101859190610624565b610322565b60405161019791906106dc565b60405180910390f35b6101ba60048036038101906101b5919061074d565b610342565b005b6101d660048036038101906101d1919061074d565b61044d565b6040516101e39190610706565b60405180910390f35b600180546101f9906107a9565b80601f0160208091040260200160405190810160405280929190818152602001828054610225906107a9565b80156102725780601f1061024757610100808354040283529160200191610272565b820191906000526020600020905b81548152906001019060200180831161025557829003601f168201915b505050505081565b600360009054906101000a900473ffffffffffffffffffffffffffffffffffffffff1681565b60056020528060005260406000206000915090505481565b600260009054906101000a900473ffffffffffffffffffffffffffffffffffffffff1681565b60076020528060005260406000206000915054906101000a900460ff1681565b60008054906101000a900473ffffffffffffffffffffffffffffffffffffffff1681565b60066020528060005260406000206000915054906101000a900460ff1681565b600260009054906101000a900473ffffffffffffffffffffffffffffffffffffffff1673ffffffffffffffffffffffffffffffffffffffff166323b872dd3330846040518463ffffffff1660e01b81526004016103a1939291906107db565b602060405180830381600087803b1580156103bb57600080fd5b505af11580156103cf573d6000803e3d6000fd5b505050506040513d601f19601f820116820180604052508101906103f3919061083e565b5080600560003373ffffffffffffffffffffffffffffffffffffffff1673ffffffffffffffffffffffffffffffffffffffff1681526020019081526020016000206000828254610443919061089a565b9250508190555050565b6004818154811061045d57600080fd5b906000526020600020016000915054906101000a900473ffffffffffffffffffffffffffffffffffffffff1681565b600081519050919050565b600082825260208201905092915050565b60005b838110156104c65780820151818401526020810190506104ab565b838111156104d5576000848401525b50505050565b6000601f19601f8301169050919050565b60006104f78261048c565b6105018185610497565b93506105118185602086016104a8565b61051a816104db565b840191505092915050565b6000602082019050818103600083015261053f81846104ec565b905092915050565b600073ffffffffffffffffffffffffffffffffffffffff82169050919050565b6000819050919050565b600061058c61058761058284610547565b610567565b610547565b9050919050565b600061059e82610571565b9050919050565b60006105b082610593565b9050919050565b6105c0816105a5565b82525050565b60006020820190506105db60008301846105b7565b92915050565b600080fd5b60006105f182610547565b9050919050565b610601816105e6565b811461060c57600080fd5b50565b60008135905061061e816105f8565b92915050565b60006020828403121561063a576106396105e1565b5b60006106488482850161060f565b91505092915050565b6000819050919050565b61066481610651565b82525050565b600060208201905061067f600083018461065b565b92915050565b600061069082610593565b9050919050565b6106a081610685565b82525050565b60006020820190506106bb6000830184610697565b92915050565b60008115159050919050565b6106d6816106c1565b82525050565b60006020820190506106f160008301846106cd565b92915050565b610700816105e6565b82525050565b600060208201905061071b60008301846106f7565b92915050565b61072a81610651565b811461073557600080fd5b50565b60008135905061074781610721565b92915050565b600060208284031215610763576107626105e1565b5b600061077184828501610738565b91505092915050565b7f4e487b7100000000000000000000000000000000000000000000000000000000600052602260045260246000fd5b600060028204905060018216806107c157607f821691505b602082108114156107d5576107d461077a565b5b50919050565b60006060820190506107f060008301866106f7565b6107fd60208301856106f7565b61080a604083018461065b565b949350505050565b61081b816106c1565b811461082657600080fd5b50565b60008151905061083881610812565b92915050565b600060208284031215610854576108536105e1565b5b600061086284828501610829565b91505092915050565b7f4e487b7100000000000000000000000000000000000000000000000000000000600052601160045260246000fd5b60006108a582610651565b91506108b083610651565b9250827fffffffffffffffffffffffffffffffffffffffffffffffffffffffffffffffff038211156108e5576108e461086b565b5b82820190509291505056fea26469706673582212200442518ea72090d156a7e00606f98eb5d2572e7f8caa76232d145c91fedbc9f464736f6c63430008090033",
  "immutableReferences": {},
  "source": "// SPDX-License-Identifier: MIT\r\npragma solidity >=0.4.22 <0.9.0;\r\n\r\nimport './Tether.sol';\r\nimport './RWD.sol';\r\n\r\ncontract DecentralBank {\r\n  address public owner = msg.sender;\r\n  string public name = \"Decentral Bank\";\r\n  Tether public tether;\r\n  RWD public rwd;\r\n\r\n  address[] public stakers;\r\n\r\n  //keep track of staking balances\r\n  mapping (address => uint) public stakingBalance;\r\n  mapping (address => bool) public hasStaked;\r\n  mapping (address => bool) public isStaked;\r\n\r\n  constructor(Tether _tether, RWD _rwd) {\r\n    //for interaction with tether and rwd tokens\r\n    tether = _tether;\r\n    rwd = _rwd;\r\n  }\r\n\r\n  //staking function\r\n  function depositTokens(uint _amount) public {\r\n    //transfer tether token to this contract address for staking\r\n    tether.transferFrom(msg.sender, address(this), _amount);\r\n\r\n    //updating staking balance\r\n    stakingBalance[msg.sender] += _amount;\r\n  }\r\n}\r\n",
  "sourcePath": "C:\\Users\\merlin\\Desktop\\defi-staking-app-starter\\defi-staking-app-starter\\contracts\\DecentralBank.sol",
  "compiler": {
    "name": "solc",
    "version": "0.8.9+commit.e5eed63a.Emscripten.clang"
  },
  "schemaVersion": "3.4.3",
  "updatedAt": "2022-04-11T08:16:24.424Z",
  "devdoc": {
    "kind": "dev",
    "methods": {},
    "version": 1
  },
  "userdoc": {
    "kind": "user",
    "methods": {},
    "version": 1
  }
}